{
  "_format": "hh-sol-artifact-1",
  "contractName": "DutchAuction",
  "sourceName": "contracts/DutchAuction.sol",
  "abi": [
    {
      "inputs": [
        {
          "internalType": "uint256",
          "name": "_reservePrice",
          "type": "uint256"
        },
        {
          "internalType": "address",
          "name": "_judgeAddress",
          "type": "address"
        },
        {
          "internalType": "uint256",
          "name": "_numBlocksAuctionOpen",
          "type": "uint256"
        },
        {
          "internalType": "uint256",
          "name": "_offerPriceDecrement",
          "type": "uint256"
        }
      ],
      "stateMutability": "nonpayable",
      "type": "constructor"
    },
    {
      "inputs": [],
      "name": "bid",
      "outputs": [
        {
          "internalType": "address",
          "name": "",
          "type": "address"
        }
      ],
      "stateMutability": "payable",
      "type": "function"
    },
    {
      "inputs": [],
      "name": "callFinalize",
      "outputs": [
        {
          "internalType": "bool",
          "name": "",
          "type": "bool"
        }
      ],
      "stateMutability": "view",
      "type": "function"
    },
    {
      "inputs": [],
      "name": "endAuction",
      "outputs": [
        {
          "internalType": "bool",
          "name": "",
          "type": "bool"
        }
      ],
      "stateMutability": "view",
      "type": "function"
    },
    {
      "inputs": [],
      "name": "finalize",
      "outputs": [],
      "stateMutability": "nonpayable",
      "type": "function"
    },
    {
      "inputs": [],
      "name": "judgeAddress",
      "outputs": [
        {
          "internalType": "address",
          "name": "",
          "type": "address"
        }
      ],
      "stateMutability": "view",
      "type": "function"
    },
    {
      "inputs": [],
      "name": "numBlocksAuctionOpen",
      "outputs": [
        {
          "internalType": "uint256",
          "name": "",
          "type": "uint256"
        }
      ],
      "stateMutability": "view",
      "type": "function"
    },
    {
      "inputs": [],
      "name": "offerPriceDecrement",
      "outputs": [
        {
          "internalType": "uint256",
          "name": "",
          "type": "uint256"
        }
      ],
      "stateMutability": "view",
      "type": "function"
    },
    {
      "inputs": [],
      "name": "ownerAddress",
      "outputs": [
        {
          "internalType": "address payable",
          "name": "",
          "type": "address"
        }
      ],
      "stateMutability": "view",
      "type": "function"
    },
    {
      "inputs": [
        {
          "internalType": "uint256",
          "name": "refundAmount",
          "type": "uint256"
        }
      ],
      "name": "refund",
      "outputs": [],
      "stateMutability": "nonpayable",
      "type": "function"
    },
    {
      "inputs": [],
      "name": "reservePrice",
      "outputs": [
        {
          "internalType": "uint256",
          "name": "",
          "type": "uint256"
        }
      ],
      "stateMutability": "view",
      "type": "function"
    },
    {
      "inputs": [],
      "name": "startBlockNumber",
      "outputs": [
        {
          "internalType": "uint256",
          "name": "",
          "type": "uint256"
        }
      ],
      "stateMutability": "view",
      "type": "function"
    },
    {
      "inputs": [],
      "name": "winnerAddress",
      "outputs": [
        {
          "internalType": "address payable",
          "name": "",
          "type": "address"
        }
      ],
      "stateMutability": "view",
      "type": "function"
    },
    {
      "inputs": [],
      "name": "winningPrice",
      "outputs": [
        {
          "internalType": "uint256",
          "name": "",
          "type": "uint256"
        }
      ],
      "stateMutability": "view",
      "type": "function"
    }
  ],
  "bytecode": "0x60806040523480156200001157600080fd5b5060405162000c4738038062000c4783398181016040528101906200003791906200010d565b8360008190555082600160006101000a81548173ffffffffffffffffffffffffffffffffffffffff021916908373ffffffffffffffffffffffffffffffffffffffff160217905550816002819055508060038190555033600460006101000a81548173ffffffffffffffffffffffffffffffffffffffff021916908373ffffffffffffffffffffffffffffffffffffffff1602179055504360058190555050505050620001eb565b600081519050620000f081620001b7565b92915050565b6000815190506200010781620001d1565b92915050565b600080600080608085870312156200012457600080fd5b60006200013487828801620000f6565b94505060206200014787828801620000df565b93505060406200015a87828801620000f6565b92505060606200016d87828801620000f6565b91505092959194509250565b600062000186826200018d565b9050919050565b600073ffffffffffffffffffffffffffffffffffffffff82169050919050565b6000819050919050565b620001c28162000179565b8114620001ce57600080fd5b50565b620001dc81620001ad565b8114620001e857600080fd5b50565b610a4c80620001fb6000396000f3fe6080604052600436106100c25760003560e01c80634bb278f31161007f578063d3642a8811610059578063d3642a8814610227578063db2e1eed14610252578063ed7a4e0b1461027d578063fe67a54b146102a8576100c2565b80634bb278f3146101ba5780638f84aa09146101d1578063c1f52604146101fc576100c2565b80631998aeef146100c7578063278ecde1146100e55780633103ea621461010e5780633c03d8be1461013957806344fcf94a14610164578063498a4c2d1461018f575b600080fd5b6100cf6102d3565b6040516100dc9190610826565b60405180910390f35b3480156100f157600080fd5b5061010c600480360381019061010791906107c1565b610477565b005b34801561011a57600080fd5b5061012361058a565b6040516101309190610877565b60405180910390f35b34801561014557600080fd5b5061014e610590565b60405161015b9190610826565b60405180910390f35b34801561017057600080fd5b506101796105b6565b604051610186919061085c565b60405180910390f35b34801561019b57600080fd5b506101a46105c9565b6040516101b19190610877565b60405180910390f35b3480156101c657600080fd5b506101cf6105cf565b005b3480156101dd57600080fd5b506101e661073b565b6040516101f39190610841565b60405180910390f35b34801561020857600080fd5b50610211610761565b60405161021e9190610877565b60405180910390f35b34801561023357600080fd5b5061023c610767565b6040516102499190610877565b60405180910390f35b34801561025e57600080fd5b5061026761076d565b6040516102749190610877565b60405180910390f35b34801561028957600080fd5b50610292610773565b60405161029f9190610841565b60405180910390f35b3480156102b457600080fd5b506102bd610799565b6040516102ca919061085c565b60405180910390f35b6000600660009054906101000a900460ff16156102ef57600080fd5b6002546005546102ff9190610892565b431061030a57600080fd5b6003544360025460055461031e9190610892565b6103289190610942565b61033291906108e8565b60005461033f9190610892565b34101561034b57600080fd5b6001600660006101000a81548160ff021916908315150217905550600073ffffffffffffffffffffffffffffffffffffffff16600160009054906101000a900473ffffffffffffffffffffffffffffffffffffffff1673ffffffffffffffffffffffffffffffffffffffff16141561042b57600460009054906101000a900473ffffffffffffffffffffffffffffffffffffffff1673ffffffffffffffffffffffffffffffffffffffff166108fc349081150290604051600060405180830381858888f19350505050158015610425573d6000803e3d6000fd5b50610474565b33600660016101000a81548173ffffffffffffffffffffffffffffffffffffffff021916908373ffffffffffffffffffffffffffffffffffffffff160217905550346007819055505b90565b600660009054906101000a900460ff1680156104a05750600860009054906101000a900460ff16155b6104a957600080fd5b600160009054906101000a900473ffffffffffffffffffffffffffffffffffffffff1673ffffffffffffffffffffffffffffffffffffffff163373ffffffffffffffffffffffffffffffffffffffff161461050357600080fd5b6001600860006101000a81548160ff021916908315150217905550600660019054906101000a900473ffffffffffffffffffffffffffffffffffffffff1673ffffffffffffffffffffffffffffffffffffffff166108fc829081150290604051600060405180830381858888f19350505050158015610586573d6000803e3d6000fd5b5050565b60025481565b600160009054906101000a900473ffffffffffffffffffffffffffffffffffffffff1681565b600860009054906101000a900460ff1681565b60055481565b600660009054906101000a900460ff1680156105f85750600860009054906101000a900460ff16155b61060157600080fd5b600160009054906101000a900473ffffffffffffffffffffffffffffffffffffffff1673ffffffffffffffffffffffffffffffffffffffff163373ffffffffffffffffffffffffffffffffffffffff1614806106aa5750600660019054906101000a900473ffffffffffffffffffffffffffffffffffffffff1673ffffffffffffffffffffffffffffffffffffffff163373ffffffffffffffffffffffffffffffffffffffff16145b6106b357600080fd5b6001600860006101000a81548160ff021916908315150217905550600460009054906101000a900473ffffffffffffffffffffffffffffffffffffffff1673ffffffffffffffffffffffffffffffffffffffff166108fc6007549081150290604051600060405180830381858888f19350505050158015610738573d6000803e3d6000fd5b50565b600460009054906101000a900473ffffffffffffffffffffffffffffffffffffffff1681565b60075481565b60035481565b60005481565b600660019054906101000a900473ffffffffffffffffffffffffffffffffffffffff1681565b600660009054906101000a900460ff1681565b6000813590506107bb816109ff565b92915050565b6000602082840312156107d357600080fd5b60006107e1848285016107ac565b91505092915050565b6107f381610988565b82525050565b61080281610976565b82525050565b6108118161099a565b82525050565b610820816109c6565b82525050565b600060208201905061083b60008301846107f9565b92915050565b600060208201905061085660008301846107ea565b92915050565b60006020820190506108716000830184610808565b92915050565b600060208201905061088c6000830184610817565b92915050565b600061089d826109c6565b91506108a8836109c6565b9250827fffffffffffffffffffffffffffffffffffffffffffffffffffffffffffffffff038211156108dd576108dc6109d0565b5b828201905092915050565b60006108f3826109c6565b91506108fe836109c6565b9250817fffffffffffffffffffffffffffffffffffffffffffffffffffffffffffffffff0483118215151615610937576109366109d0565b5b828202905092915050565b600061094d826109c6565b9150610958836109c6565b92508282101561096b5761096a6109d0565b5b828203905092915050565b6000610981826109a6565b9050919050565b6000610993826109a6565b9050919050565b60008115159050919050565b600073ffffffffffffffffffffffffffffffffffffffff82169050919050565b6000819050919050565b7f4e487b7100000000000000000000000000000000000000000000000000000000600052601160045260246000fd5b610a08816109c6565b8114610a1357600080fd5b5056fea26469706673582212207f99c235cb1338eb184efed5f8420ffdc5c04e6e47e66b644716b972fc9b802064736f6c63430008040033",
  "linkReferences": {},
  "deployedLinkReferences": {}
}